:1000000007308A002C2F0000FF00030E8301A1009F
:100010007F08A0000A08A7008A01A00E0408A20019
:100020007708A3007808A4007908A5007A08A6003C
:10003000831383120B1E1E288B1802298C30840018
:10004000801E24288C1A0A2A8C308400001C2A283E
:100050000C18B928220884002308F7002408F800A7
:100060002508F9002608FA0027088A00210E8300D7
:10007000FF0E7F0E090083162F08F8012E020318C9
:1000800044282E08F7005028F7010830B000AE0DC4
:10009000F70D2F0877020318F700F80DB00B47286B
:1000A0008312080020308316291E3030AA00280849
:1000B000F700A81F6328F709F70A7708A8002D3072
:1000C000AA00A91729142808AE006430AF008312D3
:1000D0003B2077088316A80030307807AB0028084B
:1000E000AE000A30AF0083123B2030307707831612
:1000F000AD0030307807AC002A08F70030302B0212
:1001000003198628A914A91B29159A282A08AB00C7
:100110002030AA0030302C02031992282914A91B80
:10012000A9149A28031D2914031D9A282B08AC0032
:100130002030AB002919A128A918A7282918AD2813
:10014000B3282A0883120C1EA328990083162B08B3
:1001500083120C1EA928990083162C0883120C1EEA
:10016000AF28990083162D0883120C1EB52899001C
:100170000800033083169B009C131C141A0883127A
:10018000D100B60A3608023C031DE728D108031D3A
:10019000D0283319D02883168510023083128506A3
:1001A000510BDA283708773C0318DA2883168611B2
:1001B000831286113708F93C031CB70137088316F0
:1001C000A8001830A90083125220B70AB6013508DA
:1001D0003702031CFA28331DFA2833118316051041
:1001E00083120510831686118312861583168510D7
:1001F000831285108E010B308F00DC308E000C10C6
:100200008A112A28D101B7010B08F7008B1303309C
:1002100083169B008312510883169A009C131C15A9
:1002200055309D00AA309D009C149C1815291C1166
:10023000770883128B043315293083169B009C1397
:100240001C141A088312B50083160C143130A00058
:100250003930A100A2003630A3001E30FE007E0817
:10026000213C031C53291E307E02A03E84008313D0
:100270000008A40083120B08F7008B137E08831676
:100280009B0024089A009C131C1555309D00AA3031
:100290009D009C149C184A291C11770883128B041A
:1002A000FE0A83162F2983128B108A112A28A9305F
:1002B00084008313000803196B290130F800F7014B
:1002C000F70B6029F80B5F294A30F700F70B662916
:1002D0006929800B5D290800831685138312851711
:1002E00004308316A800FA30A90083125721831620
:1002F000A80B73298513831285130800F701F801F1
:100300008316200803102118F707F70CF80CA11822
:10031000F707F70CF80C2119F707F70CF80CA119DF
:10032000F707F70CF80C211AF707F70CF80CA11ACD
:10033000F707F70CF80C211BF707F70CF80CA11BBB
:10034000F707F70CF80C8312080030304002BA00AF
:1003500030304102B90030304202B800390883160B
:10036000A0000A30A10083127E2178083807FE0021
:100370003A088316A0006430A10083127E21780819
:100380007E07B4004F08743C031DE8290B08F700F2
:100390008B13283083169B008312340883169A002F
:1003A0009C131C1555309D00AA309D009C149C1870
:1003B000D7291C11770883128B0474300C1EDE2998
:1003C000990034088316A8001830A900831252201F
:1003D0004F08643C031D092A3408B5000B08F700D8
:1003E0008B13293083169B008312350883169A00DD
:1003F0009C131C1555309D00AA309D009C149C1820
:10040000FF291C11770883128B0464300C1E062A06
:100410009900080083160C1083128C1E0D2A1A08EE
:10042000CF004F08683C031D682A510B682A3B30F7
:10043000840083138403840A8C1E1C2A1A088000FB
:100440000D300002031D1B2A80018316A3013B30DF
:10045000A200A1014030A0002208840083132318C9
:1004600083170008A4002008840083132118831731
:100470002408800080080319402AA00AA20A2C2A16
:100480008312B3140A30FE007E080D3C031C682A58
:100490000A307E02403E8400831300088316A000C9
:1004A00083120B08F7008B137E0883169B0020082D
:1004B0009A009C131C1555309D00AA309D009C1479
:1004C0009C18602A1C11770883128B04FE0A442AA8
:1004D0004F08583C031D182B5008083C031C182BD0
:1004E0003B30840083138403840A8C1E752A1A0807
:1004F00080000D300002031D742A80018316A301C1
:100500003B30A200A1014030A000220884008313E8
:10051000231883170008A4002008840083132118DF
:1005200083172408800080080319992AA00AA20AC8
:10053000852A8312B3140A30F20072080D3C031CA2
:10054000B02A0A3072024A3E84008313720883166E
:100550009B009C131C141A088000F20A83129D2A27
:100560004A084002031DE42A4B084102031DE42A05
:100570004C084202031DE42A4D084302031DE42AED
:1005800083160510831205148316851083128510B7
:100590000130D1000B08F7008B13033083169B004A
:1005A0008312510883169A009C131C1555309D0028
:1005B000AA309D009C149C18DB2A1C11770883121A
:1005C0008B046C21D001142B8316051083120510A7
:1005D0008316861183128615D1010B08F7008B1341
:1005E000033083169B008312510883169A009C13D4
:1005F0001C1555309D00AA309D009C149C18FE2AA5
:100600001C11770883128B040130D0075008831621
:10061000A8001830A900831252205008083C031883
:10062000142B83160C14831223300C1E152B9900E7
:100630004F08583C031D912B5008083C0318912B80
:100640003B30840083138403840A8C1E252B1A08F4
:1006500080000D300002031D242B80018316A301AE
:100660003B30A200A1014030A00022088400831387
:10067000231883170008A40020088400831321187E
:1006800083172408800080080319492BA00AA20AB6
:10069000352B8312B3141E30FE007E08213C031C50
:1006A000602B1E307E02453E840083137E08831635
:1006B0009B009C131C141A088000FE0A83124D2B09
:1006C00045084002031D8D2B46084102031D8D2B5A
:1006D00047084202031D8D2B48084302031D8D2B42
:1006E000D0010130D1000B08F7008B1303308316C3
:1006F0009B008312510883169A009C131C155530D9
:100700009D00AA309D009C149C18842B1C11770816
:1007100083128B0483160C10831240300C1E8E2B18
:1007200099004F08743C031D982B510B982BA52161
:100730004F08643C031D9F2B510B9F2BA5214F0895
:100740005F3C03196C218C128A112A2886128316A9
:1007500086128312061283160612031083126D0D81
:100760007E39F0000830EF00EF080319CE2B700837
:100770008039803C0319BE2B0613BF2B0617831646
:10078000061383128616831686120310F00D831249
:100790008612831686128312EF03B42B0830EF0003
:1007A000EF080319EA2B6E088039803C0319DA2B15
:1007B0000613DB2B06178316061383128616831681
:1007C000861203108312EE0D861283168612831290
:1007D000EF03D02B06168316061283128616831695
:1007E000861283120800EF01861283168612831286
:1007F000061283160612031083126C0D7E398038A0
:10080000EE000830ED00ED0803191D2C6E0880394C
:10081000803C03190D2C06130E2C061783160613A5
:10082000831286168316861203108312EE0D86122B
:10083000831686128312ED03032C0830ED00ED08B9
:100840000319352C86168316861203108312EF0DBA
:100850008316861700308312861B0130EF04861240
:10086000831686128312ED031F2C061683160612BA
:10087000831286168316861283126F08F80008000A
:10088000EB016908EC00F3237808EB006A08FF3AF3
:100890006B05EC006908ED006C08EE00A62308006B
:1008A000EB016908EC00F3237808EB006B086A049D
:1008B000EC006908ED006C08EE00A623080006169F
:1008C0008316061283120517831605138312051764
:1008D0008316051300008312051383160513000009
:1008E0008312051783160513000001308312ED00F3
:1008F0000F30EE00A62300002A30ED008D30EE0010
:10090000A6232B30ED003E30EE00A6232D30ED0067
:100910001E30EE00A6232C30ED00EE01A62315308C
:10092000ED004030EE00A6231130ED003D30EE002A
:10093000A6231430E9000330EA0040241430EC0010
:10094000F3237808D2001430E9000330EA00502481
:100950006B2F0230E300E401E5015B080E3A031956
:10096000B52C023A0319BA2CBF2C1230E400103017
:10097000E500BF2C7730E4003030E500BF2C640880
:100980008038E9000230ED006908EE00A62304304B
:10099000E9008030EA0040240A30E9008030EA00B3
:1009A00050240130ED00EE01A623E8015E08680244
:1009B0000318E92C68085C07840083135D1883170B
:1009C0000008E9000930ED006908EE00A623E80AF6
:1009D000D62C0130ED005B08EE00A6235B080C3C32
:1009E000031DF72C0D30E9008030EA005024FF3061
:1009F000E8000430EC00F3237808E700E803E80897
:100A00000319082D6718082D670865050319F92CC7
:100A10000D30E9008030EA004024E8080319802DF9
:100A20000630EC00F32378081B39031D7E2DE3010B
:100A300067086405013903191F2D0130E3005B08C5
:100A40000C3C031D7D2D0A30EC00F3237808E700F1
:100A50000C30EC00F32378080739E600E6080319A8
:100A6000422D6108840083136218831701306702E6
:100A7000F700F70DF70DF70DF830F7057708660763
:100A800080004F2D61088400831362188317670D5F
:100A9000F700F70DF70DF830F70577088000E70845
:100AA000031D542D0130E7006708103C03185A2D30
:100AB0001030E700E801670868020318762D68081F
:100AC0005F07F8006008FA000318FA0A7808E900DE
:100AD0007A08EA000930EC00F323690884008313E4
:100AE0006A18831778088000E80A5B2D68085F079A
:100AF00084008313601883178001802D0230E30087
:100B00006308F8000800C0308B0483160C148312AD
:100B1000510BB12D34083702031CB12DB318B12D80
:100B2000D1010B08F7008B13033083169B0083124F
:100B3000510883169A009C131C1555309D00AA304D
:100B40009D009C149C18A22D1C11770883128B0405
:100B500083160510831205108316861183128615DD
:100B6000B314510B2B2FD3013230D2002630D400D6
:100B70005308D6005208D5000D30ED000730EE00C6
:100B8000A623550884008313561883175408800041
:100B90000C30DB005608DD005508DC000130DE00BB
:100BA0005608E0005508DF00E2015830E100A924B2
:100BB0007808D700D708031DE12D5808103C031909
:100BC000E32D0230D7005708F800F808031DEC2D7C
:100BD0000130F800EE2DEE2D0030F800F808031972
:100BE0002B2FD3012D30D2005308D6005208D50048
:100BF000D9010D30ED00EE01A623550884008313C2
:100C000056188317933080000130550784008313F2
:100C100056188317203080000830E900EA0040248D
:100C20000C30DB005608DD005508DC000230DE0029
:100C30005608E0005508DF00E2015A30E100A9241F
:100C40007808D700D708031D402ED8015808033C68
:100C5000031C342E58085507840083135618831735
:100C60000008D906D80A262E0430550784008313BD
:100C700056188317000859020319402E0230D70076
:100C80005708F8007808D400053052078400831311
:100C9000531883178001D408031D522E0130F80029
:100CA000542E542E0030F800F8080319AE2ED3014C
:100CB0002930D200D5012D30D400D6015608033C8E
:100CC000031C7A2E56085407840083135518831783
:100CD0000008D7005608520784008313531883175F
:100CE00000085702031D762E3314782E33107A2E07
:100CF000D60A5E2E003033180130F800F8080319C8
:100D0000AE2E8316051083120514831685108312E8
:100D100085100130D1000B08F7008B1303308316C8
:100D20009B008312510883169A009C131C155530A2
:100D30009D00AA309D009C149C189C2E1C117708C5
:100D400083128B04B314A8018B1BA8178B136C217F
:100D5000A81B8B1783160C148312B7015030D300D5
:100D6000D401D8015330D7000230D900DB0155300F
:100D7000DA000530E9000430EA0040240A30E900D6
:100D80008030EA005024DC0159085C020318DB2E95
:100D90005808FA005708D70A0319D80A84008313A1
:100DA0007A1883170008DE000930ED005E08EE00B7
:100DB000A623DC0AC42E0130ED000330EE00A6238A
:100DC000FF30DC000530EC00F3237808DD00DC03A5
:100DD000DC080319ED2E5D1DE22E5A08F8005B08B1
:100DE000FA005A08DE005B08DF002230EC00F32333
:100DF0005E08840083135F18831778088000013031
:100E00005A07F8005B08FA000318FA0A7808DE00AF
:100E10007A08DF002130EC00F3235E08840083139E
:100E20005F188317780880000830E9008030EA00F6
:100E300040240C30DB00DD015330DC000430DE00E8
:100E4000E0015330DF00E2015230E100A924083014
:100E5000E900EA004024B62F03081F3983008316F7
:100E60008E1519309900A6309800903083129800A2
:100E70003310B310B401B501B601B701B801B9011F
:100E8000BA013311D001D10107309F008313A6307E
:100E9000A9001930AA000130AB002B30AC008E0144
:100EA0000B308F00DC308E00B5309000C0308B04EA
:100EB00083168C1683120B16B601B31003308316FB
:100EC0009B009C131C141A088312D1000030831657
:100ED000850083125F2C831605108312051083167C
:100EE000851083128510831686118312861583164A
:100EF000851383128513283083169B009C131C14C2
:100F00001A088312B4000230D200A8018B1BA81764
:100F10008B1396308316A90083125721A81B8B17B9
:100F2000D20B852FB701D108031DA22F8316051000
:100F3000831205108316861183128615B314831647
:100F40000C148312B7010230D200A8018B1BA81722
:100F50008B1396308316A90083125721A81B8B1779
:100F6000D20BA52F510BB62FB31C832DB22F6300CC
:02400E00503F21
:00000001FF
;PIC16F628A
;CRC=FD49  CREATED="22-jun.-21 20:18"
