:1000000000308A009E280000FF00030E8301A1003B
:100010007F08A0000A08A7008A01A00E0408A20019
:100020007708A3007808A4007908A5007A08A6003C
:10003000831383128C308400801E20288C1A312870
:10004000220884002308F7002408F8002508F90096
:100050002608FA0027088A00210E8300FF0E7F0E73
:1000600009008C1E31281A08B2003208723C031DA8
:1000700079282830840083138403840A8C1E3E2848
:100080001A0880000D300002031D3D288001B801D0
:100090002830B700B6012D30B5003708840083132F
:1000A000381883170008B900350884008313361800
:1000B000831739088000800803196128B50AB70A38
:1000C0004D282D08743C031D6D288316851083125E
:1000D000851483168513831285132D08713C031D27
:1000E0007928831685108312851083168513831251
:1000F00085172D30840083130030000403198628EF
:1001000000080C1E81289900840A7C288C128A1110
:100110002028343084008313000803199D280130FF
:10012000F800F701F70B9228F80B91284A30F700F6
:10013000F70B98289B28800B8F28080003081F398D
:10014000830083168E1519309900A63098009030E0
:100150008312980007309F0083138E010B308F00AD
:10016000DC308E00B5309000C0308B0483168C16C6
:100170000030850005108312051083168510831248
:1001800085108316861183128615831685138312B4
:1001900085130230B3009630B4008920B30BCB280E
:1001A0000230B3009630B4008920B30BD228D72890
:0201B0006300EA
:02400E00503F21
:00000001FF
;PIC16F628A
;CRC=C2ED  CREATED="13-may.-21 20:37"
