:1000000005308A00CC2D0000FF00030E8301A10003
:100010007F08A0000A08A7008A01A00E0408A20019
:100020007708A3007808A4007908A5007A08A6003C
:10003000831383120B1E1E288B1850288C308400CB
:10004000801E24288C1AA3288C308400001C2A28A7
:100050000C188428220884002308F7002408F800DC
:100060002508F9002608FA0027088A00210E8300D7
:10007000FF0E7F0E0900A6308400831300080319C9
:100080004F280130F800F701F70B4428F80B4328FC
:100090004A30F700F70B4A284D28800B412808000A
:1000A00014308316A500FA30A60083123B20831675
:1000B000A50B532805108312051083168511831292
:1000C00085158316851083128510DD010B08F70056
:1000D0008B13033083169B0083125D0883169A00EE
:1000E0009C131C1555309D00AA309D009C149C1833
:1000F00077281C11770883128B04BB1483160C1409
:1001000083128B108A112A28033083169B009C13BC
:100110001C141A088312DD00BE0A3E08023C031DAF
:100120009B28DD08031D9928831685100230831251
:100130008506BF0ABE018E010B308F00DC308E00B9
:100140000C108A112A288C1EA3281A08DC005C08CF
:10015000683C031D372983160C1048308400831334
:100160008403840A83128C1EB3281A0880000D3081
:1001700000020319BD288316B12880018316A80147
:100180004830A700A6015230A50027088400831339
:10019000281883170008A90025088400831326184F
:1001A00083172908800080080319D928A50AA70AFF
:1001B000C5288312BB140B08F7008B130A30831673
:1001C0009B008312530883169A009C131C1555300C
:1001D0009D00AA309D009C149C18EC281C117708E7
:1001E00083128B040B08F7008B130B3083169B00D4
:1001F0008312540883169A009C131C1555309D00D9
:10020000AA309D009C149C1803291C1177088312A6
:100210008B040B08F7008B130C3083169B008312A2
:10022000550883169A009C131C1555309D00AA3062
:100230009D009C149C181A291C11770883128B04AA
:100240000B08F7008B130D3083169B0083125608A2
:1002500083169A009C131C1555309D00AA309D00F2
:100260009C149C1831291C11770883128B045C089C
:100270004F3C031DEC2983160C1048308400831377
:100280008403840A83128C1E43291A0880000D30CF
:10029000000203194D298316412980018316A80104
:1002A0004830A700A6015230A50027088400831318
:1002B000281883170008A90025088400831326182E
:1002C000831729088000800803196929A50AA70A4D
:1002D00055298312BB145308C0005408C1005508A7
:1002E000C2005608C3000A3083169B009C131C14DE
:1002F0001A088312C4000B3083169B009C131C1435
:100300001A088312C5000C3083169B009C131C1422
:100310001A088312C6000D3083169B009C131C1410
:100320001A088312C70044084002031DC929450862
:100330004102031DC92946084202031DC929470875
:100340004302031DC9298316051083120514831661
:100350008510831285108316851183128511013053
:10036000DD000B08F7008B13033083169B0083120C
:100370005D0883169A009C131C1555309D00AA3009
:100380009D009C149C18C2291C11770883128B04B1
:10039000EC2983160510831205108316851183122C
:1003A0008515DD010B08F7008B13033083169B00C6
:1003B00083125D0883169A009C131C1555309D000E
:1003C000AA309D009C149C18E3291C117708831205
:1003D0008B0483160C148312523084008313003074
:1003E00000040319F92900080C1EF4299900840A55
:1003F000EF298C128A112A280612831606128312FC
:100400008611831686110310200D7E39A300083053
:10041000A200A2080319252A23088039803C031969
:10042000152A83128612172A8316831286168316BC
:10043000861283120616831606120310A30D83126A
:10044000061283160612A203092A0830A200A20887
:100450000319432A21088039803C0319332A831267
:100460008612352A83168312861683168612831205
:100470000616831606120310A10D831206128316A8
:100480000612A203272A8312861583168611831269
:10049000061683160612831208008316A201831221
:1004A0000612831606128312861183168611031014
:1004B0007E0D7E398038A1000830A000A008031905
:1004C0007A2A21088039803C03196A2A831286120D
:1004D0006C2A8316831286168316861283120616DA
:1004E000831606120310A10D83120612831606123C
:1004F000A0035E2A0830A000A0080319922A8312E4
:100500000616831606120310A20D0617003083127A
:10051000061B01308316A2048312061283160612EC
:10052000A0037C2A83128615831686118312061671
:10053000831606122208F80083120800FD017B08CA
:10054000FE004D227808FD007C08FF3A7D05FE0084
:100550007B088316A0007E08A1008312FC210800FE
:10056000FD017B08FE004D227808FD007D087C041B
:10057000FE007B088316A0007E08A1008312FC21E8
:100580000800861583168611831286178316861334
:100590008312861783168613000083128613831630
:1005A000861300008312861783168613000001301D
:1005B000A0000F30A1008312FC2100002A30831616
:1005C000A0008D30A1008312FC212B308316A000E7
:1005D0003E30A1008312FC212D308316A0001E3076
:1005E000A1008312FC212C308316A000A1018312EC
:1005F000FC2115308316A0004030A1008312FC219D
:1006000011308316A0003D30A1008312FC2114306C
:10061000FB000330FC009E221430FE004D227808BF
:10062000DE001430FB000330FC00B022162E023036
:10063000EF00F001F10167080E3A0319232B023A8B
:100640000319282B2D2B1230F0001030F1002D2B28
:100650007730F0003030F1002D2B70088038FB002F
:1006600002308316A0007B08A1008312FC21043015
:10067000FB008030FC009E220A30FB008030FC0032
:10068000B02201308316A000A1018312FC21F401E5
:100690006A08740203185D2B7408680784008313CA
:1006A000691883170008FB0009308316A0007B0837
:1006B000A1008312FC21F40A482B01308316A0000C
:1006C000831267088316A1008312FC2167080C3C83
:1006D000031D6F2B0D30FB008030FC00B022FF307B
:1006E000F4000430FE004D227808F300F403F4080F
:1006F0000319802B7318802B730871050319712B54
:100700000D30FB008030FC009E22F4080319F82B0A
:100710000630FE004D2278081B39031DF62BEF0131
:100720007308700501390319972B0130EF00670832
:100730000C3C031DF52B0A30FE004D227808F30017
:100740000C30FE004D2278080739F200F208031938
:10075000BA2B6D08840083136E188317013073025F
:10076000F700F70DF70DF70DF830F705770872076A
:100770008000C72B6D08840083136E188317730DD8
:10078000F700F70DF70DF830F70577088000F3084C
:10079000031DCC2B0130F3007308103C0318D22B3F
:1007A0001030F300F401730874020318EE2B740880
:1007B0006B07F8006C08FA000318FA0A7808FB00C7
:1007C0007A08FC000930FE004D227B088400831368
:1007D0007C18831778088000F40AD32B74086B0701
:1007E000840083136C1883178001F82B0230EF000C
:1007F0006F08F8000800E2016208033C031C182C93
:100800006208600784008313611883170008E300FF
:1008100062085E07840083135F1883170008630271
:10082000031D142C3B14162C3B10182CE20AFC2B35
:1008300000303B180130F8000800C0308B048316EC
:100840000C148312BD010A30BC00033083169B00D8
:100850009C131C141A088312DD005D0B5A2C3C08F3
:100860003F02031D5A2CBD08031D5A2CDD010B0845
:10087000F7008B13033083169B0083125D088316E9
:100880009A009C131C1555309D00AA309D009C14A5
:100890009C18482C1C11770883128B0483160510B2
:1008A000831205108316851183128515BB148316D8
:1008B0000C1483125D0BCB2DDF013A30DE002630A5
:1008C000E0005F08E2005E08E1000D308316A00042
:1008D0000730A1008312FC21610884008313621891
:1008E0008317600880000C30E7006208E9006108A7
:1008F000E8000130EA006208EC006108EB00EE015C
:100900006430ED0017237808E300E308031D8C2C06
:100910006408103C03198E2C0230E3006308F800D1
:10092000F808031D972C0130F800992C992C003001
:10093000F800F8080319CB2DDF013530DE005F0821
:10094000E2005E08E100E5010D308316A000A10180
:100950008312FC216108840083136218831793308B
:1009600080000130610784008313621883172030F0
:1009700080000830FB00FC009E220C30E70062087B
:10098000E9006108E8000230EA006208EC00610852
:10099000EB00EE016630ED0017237808E300E30872
:1009A000031DED2CE4016408033C031CE12C6408E6
:1009B000610784008313621883170008E506E40AC0
:1009C000D32C043061078400831362188317000856
:1009D00065020319ED2C0230E3006308F800780883
:1009E000E00005305E07840083135F1883178001E1
:1009F000E008031DFF2C0130F800012D012D00300F
:100A0000F800F8080319452DDF012930DE00E10167
:100A10003530E000FB23F808031D222DDF012D30C7
:100A2000DE00E1013530E000FB23F808031D222D34
:100A3000DF013130DE00E1013530E000FB23F80852
:100A40000319452D83160C10051083120514831607
:100A50008510831285100130DD000B08F7008B1321
:100A6000033083169B0083125D0883169A009C1343
:100A70001C1555309D00AA309D009C149C183E2DDD
:100A80001C11770883128B04BB145030DF00E00187
:100A9000E4015F30E3000230E500E7016130E60089
:100AA0000530FB000430FC009E220A30FB00803041
:100AB000FC00B022E801650868020318762D64087E
:100AC000FA006308E30A0319E40A840083137A181E
:100AD00083170008EA0009308316A00083126A0811
:100AE0008316A1008312FC21E80A5B2D01308316D6
:100AF000A0000330A1008312FC21FF30E800053084
:100B0000FE004D227808E900E803E80803198A2D61
:100B1000691D7F2D6608F8006708FA006608EA007C
:100B20006708EB002230FE004D226A088400831320
:100B30006B1883177808800001306607F800670893
:100B4000FA000318FA0A7808EA007A08EB00213064
:100B5000FE004D226A08840083136B1883177808FF
:100B600080000830FB008030FC009E220C30E70043
:100B7000E9015F30E8000430EA00EC015F30EB008F
:100B8000EE015E30ED0017230830FB00FC009E22D2
:100B900083160C108312402E03081F39830083161E
:100BA0008E1519309900A630980090308312980065
:100BB0003B10BB10BD01BC01BE01BF01DD01073010
:100BC0009F008313A630A9001930AA000130AB00A2
:100BD0002B30AC006D30AD00FE30AE00AA30AF005F
:100BE0005930B0006930B1004830B200C830B300AD
:100BF0007330B4008E010B308F00DC308E00B530C6
:100C00009000C0308B0483168C1683120B16BE0125
:100C1000BB10033083169B009C131C141A0883120C
:100C2000DD000030831685008312C12A831605106B
:100C30008312051083168510831285108316851183
:100C400083128511DD08031D312E831605108312D2
:100C500005108316851183128515BB1483160C1499
:100C60008312A8018B1BA8178B1332308316A600A2
:100C700083123B20A81B8B175D0B402EBB1C1D2C29
:040C80003C2E6300A3
:02400E00503F21
:00000001FF
;PIC16F628A
;CRC=2629  CREATED="21-dic.-20 20:05"
