:1000000002308A00702A0000FF00030E8301A10065
:100010007F08A0000A08A7008A01A00E0408A20019
:100020007708A3007808A4007908A5007A08A6003C
:10003000831383120B1E1E288B18F0288C3084002B
:10004000801E24288C1A45298C308400001C2A2804
:100050000C185028220884002308F7002408F80010
:100060002508F9002608FA0027088A00210E8300D7
:10007000FF0E7F0E09006908F80168020318432883
:100080006808F7004F28F7010830EA00E80DF70D7F
:10009000690877020318F700F80DEA0B46280800F4
:1000A000033083169B009C131C141A088312D7007C
:1000B000B70A3708023C031DD528D708031D672857
:1000C0003419672883168510023083128506570B72
:1000D00071283808773C031871288316861183121B
:1000E00086113808F93C031CB8013808E2001830C2
:1000F000E3002030631E3030E4006208F700E21FA6
:100100008928F709F70A7708E2002D30E400E317A1
:1001100063146208E8006430E9003B207708E200DD
:1001200030307807E5006208E8000A30E9003B203B
:1001300030307707E70030307807E6006408F700D2
:10014000303065020319A828E314E31B6315BC28AB
:100150006408E5002030E400303066020319B4285A
:100160006314E31BE314BC28031D6314031DBC28A4
:100170006508E6002030E5006319C328E318C728A6
:100180006318CB28CF2864080C1EC4289900650882
:100190000C1EC828990066080C1ECC289900670818
:1001A0000C1ED0289900B80AB70136083802031C83
:1001B000E828341DE8283411831605108312051031
:1001C0008316861183128615831685108312851077
:1001D0008E010B308F00DC308E000C108A112A2823
:1001E000D701B8010B08F7008B13033083169B006F
:1001F0008312570883169A009C131C1555309D00D6
:10020000AA309D009C149C1803291C1177088312A6
:100210008B043415293083169B009C131C141A0878
:100220008312B60083160C1431308312E200393089
:10023000E300E4003630E5001E30E6006608213CAD
:10024000031C42291E306602623E840083130008AC
:10025000E7000B08F7008B13660883169B008312D8
:10026000670883169A009C131C1555309D00AA3010
:100270009D009C149C183A291C11770883128B044A
:10028000E60A1E298B108A112A288C1E45291A0875
:10029000D5005508723C031D51298316851383121E
:1002A000851755086D3C031D592983168513831244
:1002B00085138C128A112A288612831686128312BD
:1002C000061283160612031083125D0D7E39E000BC
:1002D0000830DF00DF080319842960088039803C7A
:1002E000031974290613752906178316061383123A
:1002F00086168316861203108312E00D861283166B
:1003000086128312DF036A290830DF00DF08031931
:10031000A0295E088039803C031990290613912991
:100320000617831606138312861683168612031089
:100330008312DE0D8612831686128312DF0386294E
:1003400006168316061283128616831686128312E9
:100350000800DF01861283168612831206128316A6
:100360000612031083125C0D7E398038DE000830DF
:10037000DD00DD080319D3295E088039803C0319AC
:10038000C3290613C429061783160613831286167B
:100390008316861203108312DE0D861283168612D0
:1003A0008312DD03B9290830DD00DD080319EB29CC
:1003B00086168316861203108312DF0D83168617A6
:1003C00000308312861B0130DF04861283168612EA
:1003D0008312DD03D52906168316061283128616AC
:1003E0008316861283125F08F8000800061683162B
:1003F0000612831205178316051383120517831639
:1004000005130000831205138316051300008312E1
:10041000051783160513000001308312DD000F302D
:10042000DE005C2100002A30DD008D30DE005C2122
:100430002B30DD003E30DE005C212D30DD001E3033
:10044000DE005C212C30DD00DE015C211530DD009A
:100450004030DE005C211130DD003D30DE005C21EB
:100460001430D8000330D900DA015808DC00A92183
:100470007808DA005908FF3A5A05DB005808DD0011
:100480005B08DE005C211430DC00A9217808D8006C
:100490001430D9000330DA00DB015908DC00A9214F
:1004A0007808DB005B085A04DC005908DD005C08B2
:1004B000DE005C21B12A593084008313000803193F
:1004C0006F2A0130F800F701F70B642AF80B632A52
:1004D0004A30F700F70B6A2A6D2A800B612A080060
:1004E00003081F39830083168E1519309900A63032
:1004F00098009030831298003410B410B501B60102
:10050000B701B801B901BA01BB013411D601D70155
:1005100007309F008313A801A9016930AA00483061
:10052000AB00C830AC007330AD008E010B308F00D3
:10053000DC308E00B5309000C0308B0483168C16F2
:1005400083120B16B701B410033083169B009C1363
:100550001C141A088312D7000030831685008312FA
:10056000F629831605108312051083168510831251
:1005700085108316861183128615831685138312C0
:100580008513283083169B009C131C141A088312B1
:10059000B5000230D8009630D9005B22D80BCB2AA8
:1005A000B801D708031DE02A831605108312051031
:1005B0008316861183128615B41483160C148312C5
:1005C000B8010230D8009630D9005B22D80BE32A5C
:0C05D000570BEC2AB418EC2AE82A630050
:02400E00503F21
:00000001FF
;PIC16F628A
;CRC=C629  CREATED="12-may.-21 22:11"
