:1000000007308A00172F0000FF00030E8301A100B4
:100010007F08A0000A08A7008A01A00E0408A20019
:100020007708A3007808A4007908A5007A08A6003C
:10003000831383120B1E1E288B183B288C308400E0
:10004000801E24288C1A15298C308400001C2A2834
:100050000C189128220884002308F7002408F800CF
:100060002508F9002608FA0027088A00210E8300D7
:10007000FF0E7F0E090083160510831205108316EC
:100080008611831286158316851083128510D1017F
:100090000B08F7008B13033083169B008312510863
:1000A00083169A009C131C1555309D00AA309D00A4
:1000B0009C149C1859281C11770883128B0431302A
:1000C000F2003930F300F4003630F5001E30F6004F
:1000D0007608213C031C8A281E307602723E84007A
:1000E00083130008FB000B08F7008B1376088316B8
:1000F0009B007B089A009C131C1555309D00AA306C
:100100009D009C149C1882281C11770883128B0474
:10011000F60A6828B31483160C1483128B108A1104
:100120002A28033083169B009C131C141A08831280
:10013000D100B60A3608023C031DA828D108031DC9
:10014000A62883168510023083128506B70AB601E9
:100150008E010B308F00DC308E000C108A112A28A3
:10016000A1308400831300080319C4280130F8006B
:10017000F701F70BB928F80BB8284A30F700F70B4E
:10018000BF28C228800BB628080083168513831267
:10019000851704308316A000FA30A1008312B02026
:1001A0008316A00BCC2885138312851308008316B1
:1001B0002708F80126020318E0282608F700EC2893
:1001C000F7010830A800A60DF70D270877020318DD
:1001D000F700F80DA80BE32883120800F701F801D7
:1001E0008316200803102118F707F70CF80CA11844
:1001F000F707F70CF80C2119F707F70CF80CA11901
:10020000F707F70CF80C211AF707F70CF80CA11AEE
:10021000F707F70CF80C211BF707F70CF80CA11BDC
:10022000F707F70CF80C831208008C1E15291A0822
:10023000CF004F08683C031D8229510B8229831689
:100240000C103B30840083138403840A83128C1EB9
:1002500027291A0880000D3000020319312983165E
:10026000252980018316A3013B30A200A101403063
:10027000A000220884008313231883170008A40019
:100280002008840083132118831724088000800825
:1002900003194D29A00AA20A39298312B3140A307E
:1002A000F20072080D3C031C75290A307202403EB0
:1002B0008400831300088316A00083120B08F70044
:1002C0008B13720883169B0020089A009C131C1540
:1002D00055309D00AA309D009C149C186D291C115E
:1002E000770883128B04F20A51294030840083136B
:1002F000003000040319822900080C1E7D29990092
:10030000840A78294F08583C031D9A2A5008083C53
:10031000031C9A2A83160C103B3084008313840339
:10032000840A83128C1E92291A0880000D30000264
:1003300003199C298316902980018316A3013B3061
:10034000A200A1014030A0002208840083132318DA
:1003500083170008A4002008840083132118831742
:100360002408800080080319B829A00AA20AA42939
:100370008312B3140A30FE007E080D3C031CCF2903
:100380000A307E024A3E840083137E0883169B0057
:100390009C131C141A088000FE0A8312BC294A0808
:1003A0004002031D072A4B084102031D072A4C087F
:1003B0004202031D072A4D084302031D072A831624
:1003C0000510831205148316851083128510831679
:1003D0008611831286110130D1000B08F7008B13B0
:1003E000033083169B008312510883169A009C13D6
:1003F0001C1555309D00AA309D009C149C18FE29A8
:100400001C11770883128B04C520D001962A83160D
:100410000510831205108316861183128615D101EB
:100420000B08F7008B13033083169B0083125108CF
:1004300083169A009C131C1555309D00AA309D0010
:100440009C149C18212A1C11770883128B040130FC
:10045000D00750088316A0001830A1002030211EBC
:100460003030A2002008F700A01F3E2AF709F70A43
:100470007708A0002D30A200A11721142008A600A3
:100480006430A7008312D72077088316A00030308D
:100490007807A3002008A6000A30A7008312D720FF
:1004A000303077078316A50030307807A400220883
:1004B000F700303023020319612AA114A11B211572
:1004C000752A2208A3002030A2003030240203192C
:1004D0006D2A2114A11BA114752A031D2114031DCB
:1004E000752A2308A4002030A30021197C2AA11812
:1004F000822A2118882A8E2A220883120C1E7E2A1C
:1005000099008316230883120C1E842A99008316EF
:10051000240883120C1E8A2A990083162508831248
:100520000C1E902A990083160C14831223300C1E83
:10053000972A99004F08583C031D132B5008083C7C
:100540000318132B3B30840083138403840A8C1E0E
:10055000A72A1A0880000D300002031DA62A800178
:100560008316A3013B30A200A1014030A000220865
:1005700084008313231883170008A4002008840034
:100580008313211883172408800080080319CB2ABD
:10059000A00AA20AB72A8312B3141E30FE007E08F6
:1005A000213C031CE22A1E307E02453E8400831358
:1005B0007E0883169B009C131C141A088000FE0AF8
:1005C0008312CF2A45084002031D0F2B4608410223
:1005D000031D0F2B47084202031D0F2B480843023F
:1005E000031D0F2BD0010130D1000B08F7008B1336
:1005F000033083169B008312510883169A009C13C4
:100600001C1555309D00AA309D009C149C18062B8B
:100610001C11770883128B0483160C108312403050
:100620000C1E102B99004F08743C031D7B2B510BA3
:100630007B2B3B30840083138403840A8C1E1E2B87
:100640001A0880000D300002031D1D2B8001F501EA
:100650003B30F400F3014030F2007408840083134F
:10066000751883170008F600720884008313731846
:1006700083177608800080080319412BF20AF40AD8
:100680002D2BB31430304002BA0030304102B90093
:1006900030304202B80039088316A0000A30A100A9
:1006A0008312EE2078083807F2003A088316A0007B
:1006B0006430A1008312EE2078087207B400B501FF
:1006C0000B08F7008B13283083169B008312340825
:1006D00083169A009C131C1555309D00AA309D006E
:1006E0009C149C18712B1C11770883128B04743096
:1006F0000C1E782B99008C128A112A2886128316D8
:1007000086128312061283160612031083126D0DD1
:100710007E39F0000830EF00EF080319A62B7008AF
:100720008039803C0319962B0613972B06178316E6
:10073000061383128616831686120310F00D831299
:100740008612831686128312EF038C2B0830EF007B
:10075000EF080319C22B6E088039803C0319B22BB5
:100760000613B32B061783160613831286168316F9
:10077000861203108312EE0D8612831686128312E0
:10078000EF03A82B0616831606128312861683160D
:10079000861283120800EF018612831686128312D6
:1007A000061283160612031083126C0D7E398038F0
:1007B000EE000830ED00ED080319F52B6E088039C6
:1007C000803C0319E52B0613E62B06178316061348
:1007D000831286168316861203108312EE0D86127C
:1007E000831686128312ED03DB2B0830ED00ED0833
:1007F00003190D2C86168316861203108312EF0D33
:100800008316861700308312861B0130EF04861290
:10081000831686128312ED03F72B06168316061233
:10082000831286168316861283126F08F80008005A
:10083000EB016908EC00CB237808EB006A08FF3A6B
:100840006B05EC006908ED006C08EE007E230800E3
:10085000EB016908EC00CB237808EB006B086A0415
:10086000EC006908ED006C08EE007E230800061617
:1008700083160612831205178316051383120517B4
:100880008316051300008312051383160513000059
:100890008312051783160513000001308312ED0043
:1008A0000F30EE007E2300002A30ED008D30EE0088
:1008B0007E232B30ED003E30EE007E232D30ED0008
:1008C0001E30EE007E232C30ED00EE017E2315302D
:1008D000ED004030EE007E231130ED003D30EE00A3
:1008E0007E231430E9000330EA0018241430EC00B1
:1008F000CB237808D2001430E9000330EA00282422
:10090000552F0230E300E401E5015B080E3A0319BC
:100910008D2C023A0319922C972C1230E4001030DF
:10092000E500972C7730E4003030E500972C640820
:100930008038E9000230ED006908EE007E230430C3
:10094000E9008030EA0018240A30E9008030EA002B
:1009500028240130ED00EE017E23E8015E086802E4
:100960000318C12C68085C07840083135D18831783
:100970000008E9000930ED006908EE007E23E80A6E
:10098000AE2C0130ED005B08EE007E235B080C3CD2
:10099000031DCF2C0D30E9008030EA002824FF3001
:1009A000E8000430EC00CB237808E700E803E8080F
:1009B0000319E02C6718E02C670865050319D12C92
:1009C0000D30E9008030EA001824E8080319582D9A
:1009D0000630EC00CB2378081B39031D562DE301AC
:1009E0006708640501390319F72C0130E3005B083F
:1009F0000C3C031D552D0A30EC00CB237808E70092
:100A00000C30EC00CB2378080739E600E608031920
:100A10001A2D61088400831362188317013067025E
:100A2000F700F70DF70DF70DF830F70577086607B3
:100A30008000272D61088400831362188317670DD7
:100A4000F700F70DF70DF830F70577088000E70895
:100A5000031D2C2D0130E7006708103C0318322DD0
:100A60001030E700E8016708680203184E2D680897
:100A70005F07F8006008FA000318FA0A7808E9002E
:100A80007A08EA000930EC00CB236908840083135C
:100A90006A18831778088000E80A332D68085F0712
:100AA00084008313601883178001582D0230E300FF
:100AB0006308F8000800C0308B0483160C1428303B
:100AC0009B009C131C141A088312B501B400033058
:100AD00083169B009C131C141A088312D100510B1F
:100AE0009C2D34083702031D9C2DB508031D9C2D39
:100AF000D1010B08F7008B13033083169B00831280
:100B0000510883169A009C131C1555309D00AA307D
:100B10009D009C149C188A2D1C11770883128B044D
:100B2000831605108312051083168611831286150D
:100B3000B31483160C148312510B162FD3013230C9
:100B4000D2002630D4005308D6005208D5000D300C
:100B5000ED000730EE007E235508840083135618FD
:100B60008317540880000C30DB005608DD00550860
:100B7000DC000130DE005608E0005508DF00E2012D
:100B80005830E10081247808D700D708031DCC2D08
:100B90005808103C0319CE2D0230D7005708F80032
:100BA000F808031DD72D0130F800D92DD92D0030BC
:100BB000F800F8080319162FD3012D30D20053087E
:100BC000D6005208D500D9010D30ED00EE017E238C
:100BD0005508840083135618831793308000013022
:100BE000550784008313561883172030800008307F
:100BF000E900EA0018240C30DB005608DD00550837
:100C0000DC000230DE005608E0005508DF00E2019B
:100C10005A30E10081247808D700D708031D2B2E15
:100C2000D8015808033C031C1F2E580855078400A0
:100C30008313561883170008D906D80A112E0430DA
:100C400055078400831356188317000859020319A7
:100C50002B2E0230D7005708F8007808D400053052
:100C6000520784008313531883178001D408031D8F
:100C70003D2E0130F8003F2E3F2E0030F800F808DE
:100C80000319962ED3012930D200D5012D30D4007E
:100C9000D6015608033C031C652E560854078400F1
:100CA0008313551883170008D7005608520784008D
:100CB00083135318831700085702031D612E331442
:100CC000632E3310652ED60A492E003033180130BA
:100CD000F800F8080319962E83160C1005108312DD
:100CE000051483168510831285100130D1000B087E
:100CF000F7008B13033083169B0083125108831671
:100D00009A009C131C1555309D00AA309D009C1420
:100D10009C18882E1C11770883128B04B314A80129
:100D20008B1BA8178B13C520A81B8B175030D30023
:100D3000D401D8015330D7000230D900DB0155303F
:100D4000DA000530E9000430EA0018240A30E9002E
:100D50008030EA002824DC0159085C020318C32E05
:100D60005808FA005708D70A0319D80A84008313D1
:100D70007A1883170008DE000930ED005E08EE00E7
:100D80007E23DC0AAC2E0130ED000330EE007E2322
:100D9000FF30DC000530EC00CB237808DD00DC03FD
:100DA000DC080319D52E5D1DCA2E5A08F8005B0811
:100DB000FA005A08DE005B08DF002230EC00CB238B
:100DC0005E08840083135F18831778088000013061
:100DD0005A07F8005B08FA000318FA0A7808DE00E0
:100DE0007A08DF002130EC00CB235E0884008313F7
:100DF0005F188317780880000830E9008030EA0027
:100E000018240C30DB00DD015330DC000430DE0040
:100E1000E0015330DF00E2015230E100812408306C
:100E2000E900EA00182483160C108312832F0308AC
:100E30001F39830083168E1519309900A63098004B
:100E40009030831298003310B310B501B401B6018D
:100E5000B701B801B901BA01D001D10107309F0033
:100E600083136930A9004830AA00C830AB00733042
:100E7000AC008E010B308F00DC308E00B53090005E
:100E8000C0308B0483168C1683120B16B601B31078
:100E9000033083169B009C131C141A088312D10084
:100EA0000030831685008312372C831605108312B9
:100EB0000510831685108312851083168611831200
:100EC00086118316851383128513D108031D742F91
:100ED000831605108312051083168611831286155A
:100EE000B31483160C148312A8018B1BA8178B1341
:100EF00032308316A1008312B020A81B8B17510B30
:0A0F0000832FB31C5B2D7F2F6300CD
:02400E00503F21
:00000001FF
;PIC16F628A
;CRC=14DB  CREATED="26-ene.-21 21:55"
