:1000000005308A00E62D0000FF00030E8301A100E9
:100010007F08A0000A08A7008A01A00E0408A20019
:100020007708A3007808A4007908A5007A08A6003C
:10003000831383120B1E1E288B1850288C308400CB
:10004000801E24288C1AB5288C308400001C2A2895
:100050000C188428220884002308F7002408F800DC
:100060002508F9002608FA0027088A00210E8300D7
:10007000FF0E7F0E0900A6308400831300080319C9
:100080004F280130F800F701F70B4428F80B4328FC
:100090004A30F700F70B4A284D28800B412808000A
:1000A00014308316A500FA30A60083123B20831675
:1000B000A50B532805108312051083168611831291
:1000C00086158316851083128510DD010B08F70055
:1000D0008B13033083169B0083125D0883169A00EE
:1000E0009C131C1555309D00AA309D009C149C1833
:1000F00077281C11770883128B04BB1483160C1409
:1001000083128B108A112A28033083169B009C13BC
:100110001C141A088312DD00BE0A3E08023C031DAF
:100120009B28DD08031D9928831685100230831251
:100130008506BF0ABE018E010B308F00DC308E00B9
:100140000C108A112A288316851383128517043010
:100150008316A500FA30A60083123B208316A50B58
:10016000AA2885138312851308008C1EB5281A0847
:10017000DC005C08683C031D492983160C104830DC
:10018000840083138403840A83128C1EC5281A08F2
:1001900080000D3000020319CF288316C328800188
:1001A0008316A8014830A700A6015230A5002708F1
:1001B00084008313281883170008A90025088400E9
:1001C0008313261883172908800080080319EB2859
:1001D000A50AA70AD7288312BB140B08F7008B13B4
:1001E0000A3083169B008312530883169A009C13CF
:1001F0001C1555309D00AA309D009C149C18FE28AB
:100200001C11770883128B040B08F7008B130B303B
:1002100083169B008312540883169A009C131C15A6
:1002200055309D00AA309D009C149C1815291C1166
:10023000770883128B040B08F7008B130C3083169E
:100240009B008312550883169A009C131C15553089
:100250009D00AA309D009C149C182C291C11770825
:1002600083128B040B08F7008B130D3083169B0051
:100270008312560883169A009C131C1555309D0056
:10028000AA309D009C149C1843291C1177088312E6
:100290008B045C084F3C031DFF2983160C1048306B
:1002A000840083138403840A83128C1E55291A0840
:1002B00080000D30000203195F2983165329800145
:1002C0008316A8014830A700A6015230A5002708D0
:1002D00084008313281883170008A90025088400C8
:1002E00083132618831729088000800803197B29A7
:1002F000A50AA70A67298312BB145308C000540833
:10030000C1005508C2005608C3000A3083169B007E
:100310009C131C141A088312C4000B3083169B0014
:100320009C131C141A088312C5000C3083169B0002
:100330009C131C141A088312C6000D3083169B00F0
:100340009C131C141A088312C70044084002031DA2
:10035000DC2945084102031DDC2946084202031D31
:10036000DC2947084302031DDC298316051083128C
:100370000514831685108312851083168611831247
:1003800086110130DD000B08F7008B130330831654
:100390009B0083125D0883169A009C131C15553030
:1003A0009D00AA309D009C149C18D4291C1177082C
:1003B00083128B04A320FF298316051083120510D6
:1003C0008316861183128615DD010B08F7008B1347
:1003D000033083169B0083125D0883169A009C13DA
:1003E0001C1555309D00AA309D009C149C18F629C0
:1003F0001C11770883128B0483160C14831252305D
:10040000840083130030000403190C2A00080C1E1A
:10041000072A9900840A022A8C128A112A28861235
:100420008316861283120612831606120310200DFD
:100430007E39A3000830A200A2080319382A230835
:100440008039803C0319282A831206132A2A83162E
:1004500083120617831606138312861683168612D6
:100460000310A30D8312861283168612A2031C2A80
:100470000830A200A2080319562A21088039803CBE
:100480000319462A83120613482A83168312061775
:100490008316061383128616831686120310A10D87
:1004A0008312861283168612A2033A2A8312061634
:1004B000831606128312861683168612831208008C
:1004C0008316A201831286128316861283120612E5
:1004D0008316061203107E0D7E398038A100083085
:1004E000A000A00803198D2A21088039803C031937
:1004F0007D2A831206137F2A83168312061783161A
:10050000061383128616831686120310A10D83121A
:10051000861283168612A003712A0830A000A00854
:100520000319A52A83128616831686120310A20DBC
:10053000861700308312861B01308316A2048312B3
:10054000861283168612A0038F2A8312061683163C
:10055000061283128616831686122208F80083126A
:100560000800FD017B08FE0060227808FD007C0881
:10057000FF3A7D05FE007B088316A0007E08A100DF
:1005800083120F220800FD017B08FE00602278081C
:10059000FD007D087C04FE007B088316A0007E0819
:1005A000A10083120F22080006168316061283127A
:1005B000051783160513831205178316051300000C
:1005C0008312051383160513000083120517831683
:1005D000051300000130A0000F30A10083120F228C
:1005E00000002A308316A0008D30A10083120F2254
:1005F0002B308316A0003E30A10083120F222D3035
:100600008316A0001E30A10083120F222C30831607
:10061000A000A10183120F2215308316A0004030E4
:10062000A10083120F2211308316A0003D30A100DB
:1006300083120F221430FB000330FC00B12214306F
:10064000FE0060227808DE001430FB000330FC005E
:10065000C322302E0230EF00F001F10167080E3A9C
:100660000319362B023A03193B2B402B1230F000B2
:100670001030F100402B7730F0003030F100402B8B
:1006800070088038FB0002308316A0007B08A100B0
:1006900083120F220430FB008030FC00B1220A30AC
:1006A000FB008030FC00C32201308316A000A101B2
:1006B00083120F22F4016A0874020318702B740865
:1006C000680784008313691883170008FB0009304A
:1006D0008316A0007B08A10083120F22F40A5B2B73
:1006E00001308316A000831267088316A1008312CD
:1006F0000F2267080C3C031D822B0D30FB0080305D
:10070000FC00C322FF30F4000430FE0060227808B1
:10071000F300F403F4080319932B7318932B730855
:1007200071050319842B0D30FB008030FC00B122D1
:10073000F40803190B2C0630FE00602278081B39E0
:10074000031D092CEF017308700501390319AA2B49
:100750000130EF0067080C3C031D082C0A30FE0036
:1007600060227808F3000C30FE0060227808073918
:10077000F200F2080319CD2B6D08840083136E1864
:10078000831701307302F700F70DF70DF70DF830FE
:10079000F705770872078000DA2B6D088400831351
:1007A0006E188317730DF700F70DF70DF830F70586
:1007B00077088000F308031DDF2B0130F300730876
:1007C000103C0318E52B1030F300F4017308740299
:1007D0000318012C74086B07F8006C08FA00031862
:1007E000FA0A7808FB007A08FC000930FE00602253
:1007F0007B08840083137C18831778088000F40A30
:10080000E62B74086B07840083136C188317800130
:100810000B2C0230EF006F08F8000800E2016208BC
:10082000033C031C2B2C62086007840083136118AF
:1008300083170008E30062085E07840083135F18D3
:10084000831700086302031D272C3B14292C3B103F
:100850002B2CE20A0F2C00303B180130F800080066
:10086000C0308B0483160C148312BD010A30BC0007
:10087000033083169B009C131C141A088312DD009E
:100880005D0B6D2C3C083F02031D6D2CBD08031D44
:100890006D2CDD010B08F7008B13033083169B00D2
:1008A00083125D0883169A009C131C1555309D0019
:1008B000AA309D009C149C185B2C1C117708831295
:1008C0008B0483160510831205108316861183127C
:1008D0008615BB1483160C1483125D0BE52DDF0106
:1008E0003A30DE002630E0005F08E2005E08E100FA
:1008F0000D308316A0000730A10083120F2261087B
:100900008400831362188317600880000C30E700AE
:100910006208E9006108E8000130EA006208EC00C2
:100920006108EB00EE016430ED002A237808E30053
:10093000E308031D9F2C6408103C0319A12C02300E
:10094000E3006308F800F808031DAA2C0130F80042
:10095000AC2CAC2C0030F800F8080319E52DDF01B1
:100960003530DE005F08E2005E08E100E5010D3091
:100970008316A000A10183120F2261088400831353
:10098000621883179330800001306107840083135D
:1009900062188317203080000830FB00FC00B12271
:1009A0000C30E7006208E9006108E8000230EA0064
:1009B0006208EC006108EB00EE016630ED002A23CE
:1009C0007808E300E308031D002DE4016408033CFC
:1009D000031CF42C640861078400831362188317D6
:1009E0000008E506E40AE62C04306107840083135E
:1009F00062188317000865020319002D0230E30016
:100A00006308F8007808E00005305E07840083136F
:100A10005F1883178001E008031D122D0130F800D4
:100A2000142D142D0030F800F80803195F2DDF0194
:100A30002930DE00E1013530E0000E24F808031D06
:100A4000352DDF012D30DE00E1013530E0000E24D0
:100A5000F808031D352DDF013130DE00E1013530AE
:100A6000E0000E24F80803195F2D83160C10051002
:100A70008312051483168510831285100130DD0062
:100A80000B08F7008B13033083169B0083125D085D
:100A900083169A009C131C1555309D00AA309D00AA
:100AA0009C149C18512D1C11770883128B04BB14C5
:100AB000A8018B1BA8178B13A320A81B8B175030E2
:100AC000DF00E001E4015F30E3000230E500E70110
:100AD0006130E6000530FB000430FC00B1220A3032
:100AE000FB008030FC00C322E8016508680203189F
:100AF000902D6408FA006308E30A0319E40A8400ED
:100B000083137A1883170008EA0009308316A000BF
:100B100083126A088316A10083120F22E80A752D3A
:100B200001308316A0000330A10083120F22FF3092
:100B3000E8000530FE0060227808E900E803E808D4
:100B40000319A42D691D992D6608F8006708FA009D
:100B50006608EA006708EB002230FE0060226A089F
:100B6000840083136B1883177808800001306607B0
:100B7000F8006708FA000318FA0A7808EA007A0809
:100B8000EB002130FE0060226A08840083136B189A
:100B90008317780880000830FB008030FC00B12209
:100BA0000C30E700E9015F30E8000430EA00EC01B6
:100BB0005F30EB00EE015E30ED002A230830FB00D1
:100BC000FC00B12283160C1083125E2E03081F391D
:100BD000830083168E1519309900A6309800903046
:100BE000831298003B10BB10BD01BC01BE01BF01C8
:100BF000DD0107309F008313A630A9001930AA0039
:100C00000130AB002B30AC006D30AD00FE30AE00DB
:100C1000AA30AF005930B0006930B1004830B2009E
:100C2000C830B3007330B4008E010B308F00DC305D
:100C30008E00B5309000C0308B0483168C16831262
:100C40000B16BE01BB10033083169B009C131C14B3
:100C50001A088312DD000030831685008312D42A1F
:100C600083160510831205108316851083128510D4
:100C700083168611831286118316851383128513BA
:100C8000DD08031D4F2E83160510831205108316F1
:100C9000861183128615BB1483160C148312A801C7
:100CA0008B1BA8178B1332308316A60083123B20B0
:100CB000A81B8B175D0B5E2EBB1C302C5A2E6300BD
:02400E00503F21
:00000001FF
;PIC16F628A
;CRC=C02F  CREATED="08-sep.-21 03:04"
