:1000000007308A00842F0000FF00030E8301A10047
:100010007F08A0000A08A7008A01A00E0408A20019
:100020007708A3007808A4007908A5007A08A6003C
:10003000831383120B1E1E288B1850288C308400CB
:10004000801E24288C1A30298C308400001C2A2819
:100050000C18D828220884002308F7002408F80088
:100060002508F9002608FA0027088A00210E8300D7
:10007000FF0E7F0E0900A1308400831300080319CE
:100080004F280130F800F701F70B4428F80B4328FC
:100090004A30F700F70B4A284D28800B412808000A
:1000A0001430FE00FA308316A10083123B20FE0BB1
:1000B00052288316051083120510831686118312A9
:1000C00086158316851083128510D9010B08F70059
:1000D0008B13033083169B008312590883169A00F2
:1000E0009C131C1555309D00AA309D009C149C1833
:1000F00077281C11770883128B040B08F7008B13E9
:100100001E3083169B0031309A009C131C1555300D
:100110009D00AA309D009C149C188C281C11770807
:1001200083128B040B08F7008B131F3083169B0080
:1001300039309A009C131C1555309D00AA309D0043
:100140009C149C18A1281C11770883128B040B089F
:10015000F7008B13203083169B0039309A009C13D4
:100160001C1555309D00AA309D009C149C18B62883
:100170001C11770883128B040B08F7008B132130B6
:1001800083169B0036309A009C131C1555309D0039
:10019000AA309D009C149C18CB281C117708831250
:1001A0008B04B31483160C1483128B108A112A2823
:1001B000033083169B009C131C141A088312D90069
:1001C000B60A3608023C031DEF28D908031DED28A6
:1001D00083168510023083128506B70AB6018E0198
:1001E0000B308F00DC308E000C108A112A28831609
:1001F00085138312851704308316A000FA30A100FE
:1002000083123B208316A00BFE28851383128513CF
:100210000800F701F8018316210803102218F707D8
:10022000F70CF80CA218F707F70CF80C2219F707CF
:10023000F70CF80CA219F707F70CF80C221AF707BD
:10024000F70CF80CA21AF707F70CF80C221BF707AB
:10025000F70CF80CA21BF707F70CF80C8312080038
:100260008C1E30291A08D7005708683C031DC62980
:10027000590BC62983160C10433084008313840362
:10028000840A83128C1E42291A0880000D30000255
:1002900003194C298316402980018316A30143309A
:1002A000A200A1014D30A00022088400831323186E
:1002B00083170008A40020088400831321188317E3
:1002C00024088000800803196829A00AA20A54297A
:1002D0008312B3140B08F7008B130A3083169B00AC
:1002E00083124E0883169A009C131C1555309D00EE
:1002F000AA309D009C149C187B291C11770883123E
:100300008B040B08F7008B130B3083169B008312B2
:100310004F0883169A009C131C1555309D00AA3077
:100320009D009C149C1892291C11770883128B0441
:100330000B08F7008B130C3083169B0083125008B8
:1003400083169A009C131C1555309D00AA309D0001
:100350009C149C18A9291C11770883128B040B0884
:10036000F7008B130D3083169B0083125108831600
:100370009A009C131C1555309D00AA309D009C14BA
:100380009C18C0291C11770883128B045708583C0D
:10039000031D862A5808083C031C862A83160C1065
:1003A0004330840083138403840A83128C1ED6296D
:1003B0001A0880000D3000020319E0298316D429A1
:1003C00080018316A3014330A200A1014D30A0009B
:1003D000220884008313231883170008A400200830
:1003E00084008313211883172408800080080319D0
:1003F000FC29A00AA20AE8298312B3144E08BB0004
:100400004F08BC005008BD005108BE000A308316DA
:100410009B009C131C141A088312BF000B30831618
:100420009B009C131C141A088312C0000C30831606
:100430009B009C131C141A088312C1000D308316F4
:100440009B009C131C141A088312C2003F083B0235
:10045000031D5D2A40083C02031D5D2A41083D0240
:10046000031D5D2A42083E02031D5D2A8316051006
:100470008312051483168510831285108316861146
:10048000831286110130D9000B08F7008B1303305B
:1004900083169B008312590883169A009C131C151F
:1004A00055309D00AA309D009C149C18552A1C11A3
:1004B000770883128B04F720822A83160510831293
:1004C00005108316861183128615D9010B08F700D3
:1004D0008B13033083169B008312590883169A00EE
:1004E0009C131C1555309D00AA309D009C149C182F
:1004F000772A1C11770883128B0483160C140130A1
:100500008312D80723300C1E832A99005708583CC1
:10051000031D122B5808083C0318122B433084008B
:1005200083138403840A8C1E932A1A0880000D30DA
:100530000002031D922A80018316A3014330A2000A
:10054000A1014D30A00022088400831323188317D3
:100550000008A400200884008313211883172408AE
:10056000800080080319B72AA00AA20AA32A8312CE
:10057000B3145208BB005308BC005408BD00550812
:10058000BE001E3083169B009C131C141A08831295
:10059000BF001F3083169B009C131C141A08831283
:1005A000C000203083169B009C131C141A08831271
:1005B000C100213083169B009C131C141A0883125F
:1005C000C2003F083B02031D0E2B40083C02031DE6
:1005D0000E2B41083D02031D0E2B42083E02031D57
:1005E0000E2BD8010130D9000B08F7008B13033014
:1005F00083169B008312590883169A009C131C15BE
:1006000055309D00AA309D009C149C18052B1C1190
:10061000770883128B0483160C10831240300C1E53
:100620000F2B99005708743C031DE42B590BE42B46
:100630004330840083138403840A8C1E1D2B1A0804
:1006400080000D300002031D1C2B80018316A301C6
:100650004330A200A1014D30A00022088400831382
:10066000231883170008A40020088400831321188E
:1006700083172408800080080319412BA00AA20ACE
:100680002D2B8312B31430304D02BA0030304E029D
:10069000B90030304F02B80039088316A1000A3083
:1006A000A20083120921780838078316A00083125C
:1006B0003A088316A1006430A20083120921780849
:1006C000831620078312B400B5010B08F7008B13C3
:1006D000283083169B008312340883169A009C13DB
:1006E0001C1555309D00AA309D009C149C18762B3B
:1006F0001C11770883128B04103084003508831690
:10070000A100831234088316A000A8010408A700E2
:100710002810831B2814210EF038A300A307E23E03
:10072000A400323EA60021080F39A407A407A6079B
:10073000E93EA500A507A507200E0F39A507A607C6
:10074000A50DA60DA609A60D20080F39A607A30D15
:100750000730A2000A30A607A503031CAB2BA50790
:10076000A403031CAF2BA407A303031CB32BA307F1
:10077000A203031CB72BA230840083130730270584
:1007800027138407A6300402031927170008F7006F
:10079000031DD22B271BD22B271ADC2BA719D22BF8
:1007A0002030D52BA71527123030F7077708831292
:1007B0000C1ED82B99008316840A271FC22B743075
:1007C00083120C1EE12B99008C128A112A288612A2
:1007D0008316861283120612831606120310750DF5
:1007E0007E39FC000830FB00FB080319102C7C0844
:1007F0008039803C0319002C83120613022C8316C7
:100800008312061783160613831286168316861222
:100810000310FC0D8312861283168612FB03F42B41
:100820000830FB00FB0803192E2C76088039803C29
:1008300003191E2C83120613202C8316831206170D
:100840008316061383128616831686120310F60D7E
:100850008312861283168612FB03122C831206164D
:1008600083160612831286168316861283120800D8
:10087000FB01861283168612831206128316061255
:100880000310740D7E398038F6000830F500F50845
:100890000319632C76088039803C0319532C83128A
:1008A0000613552C8316831206178316061383121C
:1008B0008616831686120310F60D8312861283168F
:1008C0008612F503472C0830F500F5080319792C3A
:1008D00083128616831686120310FB0D86170030CE
:1008E0008312861B0130FB04861283168612F503E1
:1008F000652C83120616831606128312861683163B
:1009000086127B08F80083120800F3017108F400D6
:1009100038247808F3007208FF3A7305F400710870
:10092000F5007408F600E7230800F3017108F400ED
:1009300038247808F30073087204F4007108F50095
:100940007408F600E72308000616831606128312C1
:100950000517831605138312051783160513000068
:1009600083120513831605130000831205178316DF
:10097000051300000130F5000F30F6008312E72365
:1009800000002A30F5008D30F600E7232B30F5000B
:100990003E30F600E7232D30F5001E30F600E72349
:1009A0002C30F500F601E7231530F5004030F60055
:1009B000E7231130F5003D30F600E7231430F10055
:1009C0000330F20085241430F40038247808DA006B
:1009D0001430F1000330F2009524C22F0230EB00F6
:1009E000EC01ED0163080E3A0319FA2C023A0319DF
:1009F000FF2C042D1230EC001030ED00042D773068
:100A0000EC003030ED00042D6C088038F10002302D
:100A1000F5007108F600E7230430F1008030F200A1
:100A200085240A30F1008030F20095240130F50071
:100A3000F601E723F0016608700203182E2D7008F6
:100A4000640784008313651883170008F1000930D8
:100A5000F5007108F600E723F00A1B2D0130F500C0
:100A60006308F600E72363080C3C031D3C2D0D30A2
:100A7000F1008030F2009524FF30F0000430F400E3
:100A800038247808EF00F003F00803194D2D6F1893
:100A90004D2D6F086D0503193E2D0D30F10080308E
:100AA000F2008524F0080319C52D0630F40038241F
:100AB00078081B39031DC32DEB016F086C05013944
:100AC0000319642D0130EB0063080C3C031DC22D9B
:100AD0000A30F40038247808EF000C30F400382491
:100AE00078080739EE00EE080319872D690884009D
:100AF00083136A18831701306F02F700F70DF70DA3
:100B0000F70DF830F70577086E078000942D690817
:100B1000840083136A1883176F0DF700F70DF70D24
:100B2000F830F70577088000EF08031D992D013094
:100B3000EF006F08103C03189F2D1030EF00F001FC
:100B40006F0870020318BB2D70086707F80068086B
:100B5000FA000318FA0A7808F1007A08F20009305E
:100B6000F4003824710884008313721883177808FE
:100B70008000F00AA02D70086707840083136818AE
:100B800083178001C52D0230EB006B08F8000800C8
:100B9000C0308B0483160C1428309B009C131C144B
:100BA0001A088312B501B400033083169B009C130E
:100BB0001C141A088312D900590B092E3408370265
:100BC000031D092EB508031D092ED9010B08F700D6
:100BD0008B13033083169B008312590883169A00E7
:100BE0009C131C1555309D00AA309D009C149C1828
:100BF000F72D1C11770883128B04831605108312BE
:100C000005108316861183128615B31483160C14EF
:100C10008312590B832FDB013230DA002630DC00DF
:100C20005B08DE005A08DD000D30F5000730F600E5
:100C3000E7235D08840083135E1883175C08800037
:100C40000C30E3005E08E5005D08E4000130E600DA
:100C50005E08E8005D08E700EA016030E900EE2484
:100C60007808DF00DF08031D392E6008103C0319E7
:100C70003B2E0230DF005F08F800F808031D442E09
:100C80000130F800462E462E0030F800F80803190F
:100C9000832FDB012D30DA005B08DE005A08DD000F
:100CA000E1010D30F500F601E7235D0884008313B0
:100CB0005E1883179330800001305D078400831332
:100CC0005E188317203080000830F100F200852480
:100CD0000C30E3005E08E5005D08E4000230E60049
:100CE0005E08E8005D08E700EA016230E900EE24F2
:100CF0007808DF00DF08031D982EE0016008033C40
:100D0000031C8C2E60085D07840083135E18831714
:100D10000008E106E00A7E2E04305D07840083139C
:100D20005E188317000861020319982E0230DF0055
:100D30005F08F8007808DC0005305A078400831348
:100D40005B1883178001DC08031DAA2E0130F80010
:100D5000AC2EAC2E0030F800F8080319032FDB018D
:100D60002930DA00DD012D30DC00DE015E08033CB5
:100D7000031CD22E5E085C07840083135D18831762
:100D80000008DF005E085A07840083135B1883178E
:100D900000085F02031DCE2E3314D02E3310D22E46
:100DA000DE0AB62E003033180130F800F8080319B7
:100DB000032F83160C10051083120514831685105B
:100DC000831285100130D9000B08F7008B13033014
:100DD00083169B008312590883169A009C131C15D6
:100DE00055309D00AA309D009C149C18F52E1C11B6
:100DF000770883128B04B314A8018B1BA8178B13DD
:100E0000F720A81B8B175030DB00DC01E0015B30C2
:100E1000DF000230E100E3015D30E2000530F10067
:100E20000430F20085240A30F1008030F20095246D
:100E3000E401610864020318302F6008FA005F08BB
:100E4000DF0A0319E00A840083137A188317000865
:100E5000E6000930F5006608F600E723E40A192FDA
:100E60000130F5000330F600E723FF30E4000530E1
:100E7000F40038247808E500E403E4080319422F5D
:100E8000651D372F6208F8006308FA006208E60063
:100E90006308E7002230F4003824660884008313D6
:100EA000671883177808800001306207F80063082C
:100EB000FA000318FA0A7808E6007A08E7002130F9
:100EC000F4003824660884008313671883177808B1
:100ED00080000830F1008030F20085240C30E300FF
:100EE000E5015B30E4000430E600E8015B30E70038
:100EF000EA015A30E900EE240830F100F2008524BE
:100F000083160C108312F02F03081F3983008316F9
:100F10008E1519309900A6309800903083129800F1
:100F20003310B310B501B401B601B701B801B9016E
:100F3000BA01D801D90107309F0083136930A90095
:100F40004830AA00C830AB007330AC008E010B30C3
:100F50008F00DC308E00B5309000C0308B048316DB
:100F60008C1683120B16B601B310033083169B0048
:100F70009C131C141A088312D900003083168500B4
:100F80008312A42C83160510831205108316851076
:100F9000831285108316861183128611831685139A
:100FA00083128513D908031DE12F831605108312C0
:100FB00005108316861183128615B31483160C143C
:100FC0008312A8018B1BA8178B1332308316A10044
:100FD00083123B20A81B8B17590BF02FB31CC82D75
:040FE000EC2F63008F
:02400E00503F21
:00000001FF
;PIC16F628A
;CRC=3F0C  CREATED="17-ene.-21 16:26"
