:1000000007308A002D2F0000FF00030E8301A1009E
:100010007F08A0000A08A7008A01A00E0408A20019
:100020007708A3007808A4007908A5007A08A6003C
:10003000831383120B1E1E288B1850288C308400CB
:10004000801E24288C1A2C298C308400001C2A281D
:100050000C18AF28220884002308F7002408F800B1
:100060002508F9002608FA0027088A00210E8300D7
:10007000FF0E7F0E0900A5308400831300080319CA
:100080004F280130F800F701F70B4428F80B4328FC
:100090004A30F700F70B4A284D28800B412808000A
:1000A0001430FB00FA308316A50083123B20FB0BB3
:1000B00052288316051083120510831686118312A9
:1000C00086158316851083128510D1010B08F70061
:1000D0008B13033083169B008312510883169A00FA
:1000E0009C131C1555309D00AA309D009C149C1833
:1000F00077281C11770883128B043130F2003930D5
:10010000F300F4003630F5001E30F6007608213C8E
:10011000031CA8281E307602723E84008313000858
:10012000FB000B08F7008B13760883169B007B08F7
:100130009A009C131C1555309D00AA309D009C14FC
:100140009C18A0281C11770883128B04F60A8628B5
:10015000B31483160C1483128B108A112A280330CF
:1001600083169B009C131C141A088312D100B60A34
:100170003608023C031DD428D108031DC528831668
:100180008510023083128506D228510BD2283708F9
:10019000773C0318D22883168611831286118316A2
:1001A0000C108312B70AB6018E010B308F00DC30C1
:1001B0008E000C108A112A28831685138312851746
:1001C00004308316A000FA30A50083123B2083166A
:1001D000A00BE328851383128513080083162708D4
:1001E000F80126020318F7282608F7000329F7016B
:1001F0000830A800A60DF70D270877020318F700AE
:10020000F80DA80BFA2883120800F701F8018316ED
:10021000200803102118F707F70CF80CA118F707AE
:10022000F70CF80C2119F707F70CF80CA119F707D0
:10023000F70CF80C211AF707F70CF80CA11AF707BE
:10024000F70CF80C211BF707F70CF80CA11BF707AC
:10025000F70CF80C831208008C1E2C291A08CF000A
:100260004F08683C031D9929510B992983160C10DE
:100270003B30840083138403840A83128C1E3E293E
:100280001A0880000D3000020319482983163C2902
:1002900080018316A3013B30A200A1014030A000E1
:1002A000220884008313231883170008A400200861
:1002B0008400831321188317240880008008031901
:1002C0006429A00AA20A50298312B3140A30F2004A
:1002D00072080D3C031C8C290A307202403E8400D7
:1002E000831300088316A00083120B08F7008B13FA
:1002F000720883169B0020089A009C131C15553029
:100300009D00AA309D009C149C1884291C1177081C
:1003100083128B04F20A6829403084008313003072
:1003200000040319992900080C1E94299900840AD5
:100330008F294F08583C031DB12A5008083C031C64
:10034000B12A83160C103B30840083138403840A83
:1003500083128C1EA9291A0880000D30000203198F
:10036000B3298316A72980018316A3013B30A2007D
:10037000A1014030A00022088400831323188317B2
:100380000008A40020088400831321188317240880
:10039000800080080319CF29A00AA20ABB29831272
:1003A000B3140A30FE007E080D3C031CE6290A3017
:1003B0007E024A3E840083137E0883169B009C13B2
:1003C0001C141A088000FE0A8312D3294A0840022E
:1003D000031D1E2A4B084102031D1E2A4C0842021F
:1003E000031D1E2A4D084302031D1E2A83160510F5
:1003F00083120514831685108312851083168611C7
:10040000831286110130D1000B08F7008B130330E3
:1004100083169B008312510883169A009C131C15A7
:1004200055309D00AA309D009C149C18152A1C1163
:10043000770883128B04DC20D001AA2A83160510CA
:10044000831205108316861183128615D1010B08BD
:10045000F7008B13033083169B0083125108831619
:100460009A009C131C1555309D00AA309D009C14C9
:100470009C18382A1C11770883128B040130D0078E
:1004800050088316A0001830A1002030211E303003
:10049000A2002008F700A01F552AF709F70A7708DD
:1004A000A0002D30A200A11721142008A60064305E
:1004B000A7008312EE2077088316A000303078075B
:1004C000A3002008A6000A30A7008312EE203030D7
:1004D00077078316A50030307807A4002208F700BC
:1004E000303023020319782AA114A11B21158C2A6C
:1004F0002208A3002030A200303024020319842AED
:100500002114A11BA1148C2A031D2114031D8C2A64
:100510002308A4002030A3002119932AA118992AA6
:1005200021189F2AA52A220883120C1E952A9900B9
:100530008316230883120C1E9B2A99008316240815
:1005400083120C1EA12A99008316250883120C1E03
:10055000A72A990083160C14233083120C1EAE2A8E
:1005600099004F08583C031D2A2B5008083C0318DB
:100570002A2B3B30840083138403840A8C1EBE2AFA
:100580001A0880000D300002031DBD2A8001831669
:10059000A3013B30A200A1014030A000220884004A
:1005A0008313231883170008A400200884008313F2
:1005B000211883172408800080080319E22AA00A62
:1005C000A20ACE2A8312B3141E30FE007E08213CFC
:1005D000031CF92A1E307E02453E840083137E08E8
:1005E00083169B009C131C141A088000FE0A8312B9
:1005F000E62A45084002031D262B46084102031D3A
:10060000262B47084202031D262B48084302031DE0
:10061000262BD0010130D1000B08F7008B130330DB
:1006200083169B008312510883169A009C131C1595
:1006300055309D00AA309D009C149C181D2B1C1148
:10064000770883128B0483160C10831240300C1E23
:10065000272B99004F08743C031D922B510B922BB2
:100660003B30840083138403840A8C1E352B1A08C4
:1006700080000D300002031D342B8001F5013B305A
:10068000F400F3014030F2007408840083137518FD
:1006900083170008F6007208840083137318831709
:1006A0007608800080080319582BF20AF40A442BBC
:1006B000B31430304002BA0030304102B90030305B
:1006C0004202B80039088316A0000A30A100831244
:1006D000052178083807F2003A088316A000643034
:1006E000A1008312052178087207B400B5010B0838
:1006F000F7008B13283083169B008312340883166F
:100700009A009C131C1555309D00AA309D009C1426
:100710009C18882B1C11770883128B0474300C1ED4
:100720008F2B99008C128A112A2886128316861222
:100730008312061283160612031083126D0D7E3982
:10074000F0000830EF00EF080319BD2B7008803966
:10075000803C0319AD2B0613AE2B06178316061328
:1007600083128616831686120310F00D83128612EA
:10077000831686128312EF03A32B0830EF00EF08D5
:100780000319D92B6E088039803C0319C92B061335
:10079000CA2B061783160613831286168316861233
:1007A00003108312EE0D8612831686128312EF0356
:1007B000BF2B061683160612831286168316861220
:1007C00083120800EF018612831686128312061226
:1007D00083160612031083126C0D7E398038EE00EA
:1007E0000830ED00ED0803190C2C6E088039803CB0
:1007F0000319FC2B0613FD2B061783160613831211
:1008000086168316861203108312EE0D8612831647
:1008100086128312ED03F22B0830ED00ED08031968
:10082000242C86168316861203108312EF0D83166E
:10083000861700308312861B0130EF048612831660
:1008400086128312ED030E2C0616831606128312EF
:1008500086168316861283126F08F8000800EB01D3
:100860006908EC00E2237808EB006A08FF3A6B05A0
:10087000EC006908ED006C08EE0095230800EB0120
:100880006908EC00E2237808EB006B086A04EC00CE
:100890006908ED006C08EE00952308000616831623
:1008A0000612831205178316051383120517831684
:1008B000051300008312051383160513000083122D
:1008C000051783160513000001308312ED000F3069
:1008D000EE00952300002A30ED008D30EE009523C8
:1008E0002B30ED003E30EE0095232D30ED001E3014
:1008F000EE0095232C30ED00EE0195231530ED0030
:100900004030EE0095231130ED003D30EE00952390
:100910001430E9000330EA002F241430EC00E22305
:100920007808D2001430E9000330EA003F246B2F2E
:100930000230E300E401E5015B080E3A0319A42C40
:10094000023A0319A92CAE2C1230E4001030E50055
:10095000AE2C7730E4003030E500AE2C64088038EF
:10096000E9000230ED006908EE0095230430E9004B
:100970008030EA002F240A30E9008030EA003F246A
:100980000130ED00EE019523E8015E0868020318CE
:10099000D82C68085C07840083135D18831700084F
:1009A000E9000930ED006908EE009523E80AC52C3E
:1009B0000130ED005B08EE0095235B080C3C031D45
:1009C000E62C0D30E9008030EA003F24FF30E800DB
:1009D0000430EC00E2237808E700E803E808031994
:1009E000F72C6718F72C670865050319E82C0D30FC
:1009F000E9008030EA002F24E80803196F2D063043
:100A0000EC00E22378081B39031D6D2DE301670814
:100A10006405013903190E2D0130E3005B080C3C1D
:100A2000031D6C2D0A30EC00E2237808E7000C303F
:100A3000EC00E22378080739E600E6080319312DB7
:100A40006108840083136218831701306702F7007E
:100A5000F70DF70DF70DF830F705770866078000FA
:100A60003E2D61088400831362188317670DF70019
:100A7000F70DF70DF830F70577088000E708031D3C
:100A8000432D0130E7006708103C0318492D103052
:100A9000E700E801670868020318652D68085F072A
:100AA000F8006008FA000318FA0A7808E9007A08E2
:100AB000EA000930EC00E2236908840083136A1815
:100AC000831778088000E80A4A2D68085F078400C9
:100AD00083136018831780016F2D0230E3006308D1
:100AE000F8000800C0308B0483160C1428309B00DB
:100AF0009C131C141A088312B501B400033083162A
:100B00009B009C131C141A088312D100510BB32DA7
:100B100034083702031DB32DB508031DB32DD101D1
:100B20000B08F7008B13033083169B0083125108C8
:100B300083169A009C131C1555309D00AA309D0009
:100B40009C149C18A12D1C11770883128B0483160A
:100B50000510831205108316861183128615B314AF
:100B600083160C148312510B2C2FD3013230D20078
:100B70002630D4005308D6005208D5000D30ED00C1
:100B80000730EE0095235508840083135618831709
:100B9000540880000C30DB005608DD005508DC00EE
:100BA0000130DE005608E0005508DF00E201583051
:100BB000E10098247808D700D708031DE32D5808D2
:100BC000103C0319E52D0230D7005708F800F8084B
:100BD000031DEE2D0130F800F02DF02D0030F8004F
:100BE000F80803192C2FD3012D30D2005308D6005A
:100BF0005208D500D9010D30ED00EE0195235508BE
:100C000084008313561883179330800001305507F2
:100C10008400831356188317203080000830E900C1
:100C2000EA002F240C30DB005608DD005508DC00FC
:100C30000230DE005608E0005508DF00E2015A30BD
:100C4000E10098247808D700D708031D422ED80168
:100C50005808033C031C362E58085507840083139C
:100C6000561883170008D906D80A282E04305507CD
:100C70008400831356188317000859020319422E63
:100C80000230D7005708F8007808D4000530520722
:100C900084008313531883178001D408031D542E36
:100CA0000130F800562E562E0030F800F8080319CF
:100CB000AF2ED3012930D200D5012D30D400D6017A
:100CC0005608033C031C7C2E5608540784008313EB
:100CD000551883170008D70056085207840083135D
:100CE0005318831700085702031D782E33147A2EE9
:100CF00033107C2ED60A602E003033180130F800F5
:100D0000F8080319AF2E83160510831205148316F5
:100D10008510831285100130D1000B08F7008B136A
:100D2000033083169B008312510883169A009C138C
:100D30001C1555309D00AA309D009C149C189E2EB9
:100D40001C11770883128B04B314A8018B1BA817FE
:100D50008B13DC20A81B8B1783160C1483125030C6
:100D6000D300D401D8015330D7000230D900DB01C1
:100D70005530DA000530E9000430EA002F240A304B
:100D8000E9008030EA003F24DC0159085C020318C6
:100D9000DC2E5808FA005708D70A0319D80A84002D
:100DA00083137A1883170008DE000930ED005E080F
:100DB000EE009523DC0AC52E0130ED000330EE0075
:100DC0009523FF30DC000530EC00E2237808DD00DD
:100DD000DC03DC080319EE2E5D1DE32E5A08F80033
:100DE0005B08FA005A08DE005B08DF002230EC00E6
:100DF000E2235E08840083135F188317780880005D
:100E000001305A07F8005B08FA000318FA0A78085C
:100E1000DE007A08DF002130EC00E2235E08840067
:100E200083135F188317780880000830E90080304A
:100E3000EA002F240C30DB00DD015330DC000430ED
:100E4000DE00E0015330DF00E2015230E10098247F
:100E50000830E900EA002F24992F03081F39830086
:100E600083168E1519309900A630980090308312A1
:100E700098003310B310B501B401B601B701B80141
:100E8000B901BA01D001D10107309F008313693045
:100E9000A9004830AA00C830AB007330AC008E0106
:100EA0000B308F00DC308E00B5309000C0308B04EA
:100EB00083168C1683120B16B601B31003308316FB
:100EC0009B009C131C141A088312D1000030831657
:100ED000850083124E2C831605108312051083168D
:100EE000851083128510831686118312861583164A
:100EF000851383128513D108031D8A2F83160510CD
:100F0000831205108316861183128615B314831677
:100F10000C148312A8018B1BA8178B133230831675
:100F2000A50083123B20A81B8B17510B992FB31CD4
:060F3000722D952F6300F5
:02400E00503F21
:00000001FF
;PIC16F628A
;CRC=AE11  CREATED="03-feb.-21 15:29"
