:1000000000308A00E6280000FF00030E8301A100F3
:100010007F08A0000A08A7008A01A00E0408A20019
:100020007708A3007808A4007908A5007A08A6003C
:10003000831383128C308400801E20288C1A3A2867
:10004000220884002308F7002408F8002508F90096
:100050002608FA0027088A00210E8300FF0E7F0E73
:1000600009000A108A100A11820762346934653463
:100070006E3400348C1E3A281A08C4004408583CD8
:10008000031DCE283030840083138403840A8C1E21
:1000900047281A0880000D300002031D4628800101
:1000A000CB013030CA00C9013A30C8004A08840088
:1000B00083134B1883170008CC004808840083136F
:1000C000491883174C088000800803196A28C80A59
:1000D000CA0A56283A30A8000A3083169B009C139F
:1000E0001C141A088312C800CC014808CB00CA01AE
:1000F0002B30C9004B08840083134C188317000869
:10010000CD004908840083134A1883174D088000E6
:10011000800803198E28C90ACB0A7A282808840087
:100120008313291883170030000403199D28000841
:100130000C1E98289900840A93282B0884008313A6
:100140002C188317003000040319AC2800080C1E7B
:10015000A7289900840AA2282B082802031DBE287C
:10016000C80148083120C80AF70077080C1EB628D5
:10017000990004304802031DB128CA286D300C1EB6
:10018000BF28990061300C1EC32899006C300C1EEA
:10019000C72899007A300C1ECB2899008C128A113E
:1001A000202847308400831300080319E528013014
:1001B000F800F701F70BDA28F80BD9284A30F700D6
:1001C000F70BE028E328800BD728252903081F39DF
:1001D000830083168E1519309900A6309800903050
:1001E00083129800C501C60107309F008313C030F9
:1001F0008B0483168C160030850083120B08F700E1
:100200008B130A3083169B009A009C131C155530E3
:100210009D00AA309D009C149C180C291C11770885
:1002200083128B0483160510831205108316851024
:100230008312851083168611831286158316851303
:0E024000831285133230C700D12825296300B0
:02400E00503F21
:00000001FF
;PIC16F628A
;CRC=04D0  CREATED="24-ene.-21 13:53"
